:020000040800F2
:10280000C8220020092B0008B9570008B55000085D
:10281000B557000865450008ED7C00080000000081
:10282000000000000000000000000000DF6A000857
:10283000D5470008000000009F2A00080571000825
:10284000232B0008232B0008232B0008232B000830
:10285000232B0008232B0008232B0008232B000820
:10286000232B0008232B000895490008232B000880
:10287000232B0008232B0008232B0008232B000800
:10288000232B0008232B0008232B0008232B0008F0
:10289000232B0008232B0008232B0008232B0008E0
:1028A000232B0008232B0008232B0008232B0008D0
:1028B000232B0008DD710008FD710008232B0008A0
:1028C000232B0008232B0008232B0008232B0008B0
:1028D000232B00084D78000835790008232B0008C9
:1028E000232B0008232B0008232B0008232B000890
:1028F000232B0008232B0008232B0008232B000880
:10290000232B0008232B0008232B0008232B00086F
:10291000232B0008232B0008232B0008232B00085F
:10292000232B0008232B0008232B0008232B00084F
:1029300000F002F800F07DF80AA090E8000C824454
:102940008344AAF10107DA4501D100F072F8AFF231
:10295000090EBAE80F0013F0010F18BFFB1A43F07D
:102960000103184718E8000038E800000A444FF057
:10297000000C10F8013B13F0070408BF10F8014BDE
:102980001D1108BF10F8015B641E05D010F8016B23
:10299000641E01F8016BF9D113F0080F1EBF10F887
:1029A000014BAD1C0C1B09D16D1E58BF01F801CBAA
:1029B000FAD505E014F8016B01F8016B6D1EF9D52D
:1029C0009142D6D370470000002300240025002642
:1029D000103A28BF78C1FBD8520728BF30C148BF82
:1029E0000B60704766290EF0028165290EF0FF80AA
:1029F000642900F06F81782900F0A881732900F024
:102A0000D286002070471FB59DE8030000F0F4FB5C
:102A100000F004FF0400002000210DF051F9401CDB
:102A20006060002000210DF061F9E0601FBD10B56D
:102A300010BD01F010F81146FFF7E5FF08F032FA7B
:102A400001F02EF803B4FFF7F2FF03BC05F0DBFB47
:102A5000EFF3108072B6704780F310887047224CF5
:102A6000224D25604FF0000484F30988204C4FF07C
:102A7000010525701F4C4FF08055256062B6FEE7BA
:102A800030B41C4C4FF08055256030BC704730B4DA
:102A9000184C4FF08055256030BC704700BF72B6AF
:102AA000EFF3098028B1203880E8F00F1249096857
:102AB0000860124812490A7802700F4811490A68E2
:102AC0000260106890E8F00F203080F309884EF023
:102AD000040E62B67047B0FA80F0704790FAA0F02A
:102AE0004FEA10407047000020ED00E00000FFFFBB
:102AF0000801002004ED00E0140100200C0100207A
:102B000010010020180100200948804709480047AB
:102B1000FEE7FEE7FEE7FEE7FEE7FEE7FEE7FEE78D
:102B2000FEE7FEE704480549034A054B70470000ED
:102B30007D71000831290008C8200020C82200202B
:102B4000C8200020704770B5064600F039FB0568C4
:102B500006F10B0020F00704B4429CBF002070BDBA
:102B60002B466A68BAB11068A04210D304F108017C
:102B700088423CBF5068586007D3516810194160C3
:102B80001168091B016058601460101D70BD134668
:102B90005268002AE7D12146284600F019FB002898
:102BA000DED170BD70B50446051F00F009FB00685A
:102BB000002C14BF446870BD002C18BFAC423CBF51
:102BC00020466468F8D301680A18AA4218BF456015
:102BD00003D12A6805461144016028684119A142C1
:102BE0001CBF6C6070BD6168696021680844286022
:102BF00070BD10B5044600F0DBFA0068005DC00649
:102C000002D504F1200010BD204610BD0FB41CB544
:102C1000074B06AA7B4469460090059800F099FD91
:102C20000020694600F0A8FD1CBC5DF814FB000004
:102C3000610B000070B5044685690068C10601D5C6
:102C4000302600E02026C00707D070BDD4E901215E
:102C500030469047206A401C20626D1EF6D570BD3C
:102C600070B5044685690078C00707D170BDD4E906
:102C7000012120209047206A401C20626D1EF6D55D
:102C800070BD70B50C460546012A05D0287880062F
:102C900000D5EA69002302E0012305E05B1C9342B2
:102CA00002D2E05C0028F9D1A869E618C01AA86130
:102CB000286A184428622846FFF7BCFF04E0D5E9DB
:102CC000012114F8010B9047B442F8D32846FFF7CE
:102CD000C7FF70BD2DE9F041064600241068752934
:102CE000314616A510D0AFF30080002802DA40422A
:102CF00013A507E031688A0701D512A502E049074C
:102D000004D511A5012401E0AFF3008000210A22BF
:102D100006F1240709E0B0FBF2FCB0FBF2F302FB82
:102D20001C00303078541846491C0028F3D1234643
:102D30002A463046BDE8F04100F09FBA000000008E
:102D40002D0000002B0000002000000070B504469C
:102D50000D4621461068AFF300802188090502D591
:102D60000F4A7A4402E00E4A7A440E32002104F1FE
:102D7000240305E000F00F060009965D5E54491C2F
:102D80000028F7D120780023000704D5702D02D049
:102D900009B1022311322046BDE8704000F06DBA3F
:102DA000D6E100002DE9F05F894604464FF0000AA5
:102DB000DFF824B1FB44C0F820A02046E168884732
:102DC00000287DD0252806D0D4E901219047206A2B
:102DD000401C2062F1E700255F462046E1688847F5
:102DE0002028064607DB312E05D2B81910F8200C32
:102DF00008B10543F1E7A80701D525F00405C4F89B
:102E00001CA00027C4F818A02A2E09D0304605F0CF
:102E1000F3F938B304EB8708303EC8F8186019E0BE
:102E200059F8041B204604EB87029161E16888474A
:102E3000012F064618D1E069002820DA25F0200588
:102E40001DE0D8F8180000EB800006EB4000303899
:102E5000C8F818002046E1688847064605F0CCF916
:102E60000028EED1012F0AD02E2E08D12046E1688D
:102E700088477F1C0646022F45F02005C4DBA06969
:102E8000002803DA404245F00105A061E80701D0BF
:102E900025F01005A6B1A6F14100192802D8203668
:102EA00045F400654A463146204625604D46FFF709
:102EB00099FD60B1012807D0ED1D25F0070000E065
:102EC00007E000F1080978E705F1040975E73046E5
:102ED0007AE7206ABDE8F09FACE10000401ECAB26C
:102EE00010F8011F8A4202D00029F9D10020704752
:102EF00040EA0103024630B59B0710D14FF0013480
:102F000000E008C208C91D1B9D4315EAC41FF8D084
:102F100013F0FF0102F8011B0DD01B0AF8E711F8AE
:102F2000013B002B02F8013B05D011F8013B002BBF
:102F300002F8013BF3D130BD10B5431C02E010F89C
:102F4000011B71B18107FAD14FF0013202C88C1A0E
:102F50008C4314EAC211F9D0C01A0A0603D0C01E6D
:102F600010BDC01A10BD0A0401D0801E10BD090298
:102F7000FCD0401E10BD40EA010370B59B072ED166
:102F80004FF00136042A2AD308C810C99D1B9D435F
:102F9000121F15EAC61517D0D8B2E1B2401A50EA8E
:102FA000056110D198B2A1B2401A50EA05410AD188
:102FB00023F07F4024F07F41401A50EA052102D1DE
:102FC000180EA0EB146070BDA342DBD018BA21BA72
:102FD000884201D9012070BD4FF0FF3070BD0AB9A1
:102FE000002070BD10F8013B11F8014B63B1A34202
:102FF0000AD1521E08D010F8013B11F8014B1BB149
:10300000A34201D1521EEDD1181B70BD032A40F21C
:10301000308010F0030C00F0158011F8013BBCF17A
:10302000020F624498BF11F801CB00F8013B38BF92
:1030300011F8013BA2F1040298BF00F801CB38BFA0
:1030400000F8013B11F0030300F0B183083AC0F02F
:10305000088051F8043B083A51F804CBA0E8081066
:10306000F5E7121D5CBF51F8043B40F8043BAFF399
:103070000080D20724BF11F8013B11F801CB48BFF3
:1030800011F8012B24BF00F8013B00F801CB48BF29
:1030900000F8012B70474FF000020429C0F01280A5
:1030A00010F0030C00F01B80CCF1040CBCF1020FFB
:1030B00018BF00F8012BA8BF20F8022BA1EB0C01D0
:1030C00000F00DB85FEAC17C24BF00F8012B00F8C6
:1030D000012B48BF00F8012B70474FF0000200B5EC
:1030E000134694469646203922BFA0E80C50A0E82B
:1030F0000C50B1F12001BFF4F7AF090728BFA0E8D9
:103100000C5048BF0CC05DF804EB890028BF40F8A4
:10311000042B08BF704748BF20F8022B11F0804FE6
:1031200018BF00F8012B70474FF0013C50F8042BFA
:1031300051F8043B9A4221D1A2EB0C03934313EACA
:10314000CC1317D150F8042B51F8043B9A4215D1F7
:10315000A2EB0C03934313EACC130BD150F8042BCE
:1031600051F8043B9A4209D1A2EB0C03934313EAB2
:10317000CC13DBD04FF00000704700BFD01A01BA6B
:10318000B1FA81F101F0180122FA01F0CB40C1F14E
:103190002001DBB2C0B2C01A2CFA01F3D11A91435C
:1031A00011EAC311E6D17047704770477047704706
:1031B00010B500F033FB001D10BD00BF05CB0000B3
:1031C000004870476C200020704770477047704778
:1031D00038B504460A4600206946AFF3008000284F
:1031E00008BF38BD02460099204600F01FFB0120B1
:1031F00038BD012000F028BCF8B5AFF300800546CB
:1032000000200C46102000BF0646A819A0420DD988
:10321000324669460020AFF30080070008BF00F087
:1032200013FC0098A04218BF0546C419FFF7C8FF59
:1032300005600746F01D20F007004619284600F0FB
:103240000AF8B44208BFF8BDA21B31463868BDE891
:10325000F84000F0EBBA00210160C0E901107047AE
:103260001020704710B500F0DDFA006810BD10B5F1
:10327000044600F0D7FA046010BD2DE9F0470D4672
:1032800099469246044600F124080168880604D550
:10329000E06921F01001216000E00120A84201DD79
:1032A000471B00E00027A1697A1902EB0900081A00
:1032B000A0612078C00602D42046FFF7BBFC0026A0
:1032C00008E0D4E901211AF806009047206A401C62
:1032D000761C20624E45F4DB2078C0060AD52046D5
:1032E000FFF7A8FC06E0D4E9012130209047206ACE
:1032F000401C2062381EA7F10107F4DC07E0D4E986
:10330000012118F805009047206A401C2062281E01
:10331000A5F10105F3DC2046FFF7A2FC20780006AA
:1033200002D50220BDE8F0870120FBE770472DE9B8
:10333000FF4F0C461E464FF0FF378BB0D2E900011D
:10334000DDF860800A908A46C1F30A5505B93D460A
:10335000002108464FF00000BAF1000F00F44000D1
:1033600005DA00EB80004FF4400101EA50004FEA1B
:103370009059B9F1010F00DDB9460A9850EA4A00A8
:103380000ED044F61050A5F2FF3545432F14B8F186
:10339000000F1ED07542291E1EDDC9F100021CE07F
:1033A000B8F1010F4FF0000001D0302103E0F243EB
:1033B00005E02154401CB042FBDB304600220021D6
:1033C00021540B99C1F80880C1E900200FB0BDE875
:1033D000F08FBD1B6D1CDEE74A4600DA694206A885
:1033E00000F0C4FA06AB93E8070003AB83E80700DC
:1033F00050460A9900F0A1FB8DE80700A0F50050A7
:103400001F3800900398002D09DD42F21F014A4643
:10341000084403A90390684600F000FE08E0A0F508
:1034200000504A461F3803A90390684600F00AFE80
:103430008DE807000004000C03D04FF0FF30410876
:1034400000E01046B8F1000F03D0002200921546AC
:103450001EE0751E05D400F003FA303262556D1E71
:10346000F9D5B3460122084302D000227F1C04E0B4
:103470002078302801D100227F1E002A099786D0AB
:103480001DE0112D07DA00F0EBF9303262556D1CAA
:1034900050EA0102F5D1084302D00098C8B10EE00D
:1034A0000021681E05E0235C625C63542254401EC8
:1034B000491C8142F7DBAB46A81B401E0990002047
:1034C00004F80B000B98099AC0F80880C0E9002B9B
:1034D0007CE711264FF0000859E72DE9F04F8846A8
:1034E0000446D21D22F0070191B0D1E90001CDE9D7
:1034F0000A0104F0F7FD02460B98C00F01D02D2001
:1035000007E02068810701D52B2002E0202101EA95
:10351000C000032A099001D0072A05DB0346414673
:10352000204600F0E3F90BE12078800601D5E06940
:1035300000E00620B8F1650F814606D0B8F1660FAD
:1035400018D0B8F1670F70D131E00020B9F1110F38
:10355000009001DB112301E009F101030AAA01A98E
:103560000CA8FFF7E4FEDDE90C70002609F1010567
:10357000834647E001204B4600904FF000470AAADF
:1035800001A90CA8FFF7D3FEDDE90DB00C995D464B
:10359000002610B909F101000D18B9EB050003D49C
:1035A000C0F1FF3609F10105A5EB09002BE0B9F1E7
:1035B000010F01DA4FF001090020B9F1110F00905D
:1035C000484601DD112300E003460AAA01A90CA820
:1035D000FFF7ADFEDDE90C704D46002683462078EE
:1035E00000070AD4AB4500DA5D4601A8012D04DDD1
:1035F000411911F8011C302907D04F4502DA17F1A3
:10360000040F04DA012082460FE06D1EEEE7002F62
:1036100002DCED1B3E4403E0781CA84200DD7D1C6B
:10362000B81B00F1010A4FF000472078000703D4CF
:10363000AA4501DB4FF0FF3A0021B7F1004F0DF131
:1036400043088DF8431024D002202B23002F01DAE9
:103650007F422D230A21021EA0F1010000DC5FB190
:1036600097FBF1FC97FBF1F201FB1C7C17460CF178
:10367000300C08F801CDEEE7A8F1010003702188B5
:10368000090501D5452100E06521A0F1010800F8F8
:10369000011C09980FA9A1EB0807FF1D00B101202B
:1036A000411901EBEA70A1693844081A401EA06173
:1036B0002078C00602D42046FFF7BCFA099828B14A
:1036C000D4E901219047206A401C20622078C0067E
:1036D00022D52046FFF7AEFA1EE0002E04DBB345EC
:1036E00002DD01A8805D00E03020D4E9012190478F
:1036F000206A401C2062761CAAF101005FEA000AE1
:103700000AD100F08BF8C0680168405CD4E901215F
:103710009047206A401C2062281EA5F10105DCDCD0
:1037200007E0D4E9012118F8010B9047206A401CFA
:103730002062381EA7F10107F3DC2046FFF790FA5C
:10374000032011B043E6000001694A1C02610878B9
:10375000704700B58FB0CDE90131002105910549D1
:103760007944CDE9031011466846FFF71BFB0FB003
:1037700000BD0000E5FFFFFF0A6802F8010B0A60C8
:10378000704710B5436913B1AFF3008001E0FFF754
:1037900078FA012010BD127800F124010A7000228D
:1037A0004A700122EDE711684FF0FF32E9E710B5EA
:1037B000203AC0F00B80B1E81850203AA0E8185029
:1037C000B1E81850A0E81850BFF4F5AF5FEA027CEA
:1037D00024BFB1E81850A0E8185044BF18C918C059
:1037E000BDE810405FEA827C24BF51F8043B40F8FA
:1037F000043B08BF7047D20728BF31F8023B48BFDF
:1038000011F8012B28BF20F8023B48BF00F8012B1C
:10381000704700000048704764200020004870474F
:103820008420002000487047642000200346406840
:103830008C46002818BF88423CBF03464068F8D336
:1038400018681844884207D00CF1030020F00700E4
:10385000001D411A521A0146081D0A60FFF7A2B95D
:1038600030B5B0F10A024FEA900E71F100034EEA52
:10387000817EB0EB0E0061EB91014FEA101E4EEA23
:10388000017E10EB0E0041EB11114FEA102E4EEAB3
:10389000016E10EB0E0041EB11214FEA104E4EEA83
:1038A000014E10EB0E0041EB1141401841F10001B7
:1038B0004FEAD00040EA41704FEAD10110EB800599
:1038C0004FEA810444EA907444EB01046D1944EB1F
:1038D0000404521BA3414FF0000348BF0A3200D535
:1038E00030BD401C41F1000130BD00002DE9F04128
:1038F0001F46044603260168072A01F4006004DB22
:1039000008B116A505E016A503E008B115A500E06D
:1039100015A521F010002060A069C01EA0610FB1A4
:10392000401EA0612046FFF785F94FB1D4E901217F
:1039300038469047206A401C2062C01C206206E086
:10394000206AFAE7D4E9012115F8010B9047761EA9
:10395000F8D22046FFF784F9BDE8F0814E414E00D1
:103960006E616E00494E4600696E66002DE9F047B3
:10397000814616468AB0334878440DC88DE80D005C
:1039800030487844801C03AC0DC884E80D0041F633
:103990009B300844372190FBF1F290FBF1F5A5F143
:1039A000800501FB12041B3C02D56442012000E0AB
:1039B0000020DFF890A080460027FA44AAF1BE0A52
:1039C0000DE0E00709D03246684607EB47010AEBF5
:1039D000810100F037FB8DE8070064107F1C002C8C
:1039E000EFD1184F7F44AC3F18E0E80714D007EB45
:1039F00004100DF1180A90E80E008AE80E00C06865
:103A0000F04201D198190890324606A903A800F0A7
:103A100019FB03AB83E807006D10641C002DE4D193
:103A200032466946B8F1000F03A802D000F0F6FA5A
:103A300001E000F007FBC9E90001C9F808200AB05D
:103A4000BDE8F08708D7000010B500F035F8BDE8F4
:103A5000104000F02BB87546FFF7DCFEAE460500BF
:103A60006946534620F00700854618B020B5FFF799
:103A700059F8BDE820404FF000064FF000074FF026
:103A800000084FF0000B21F00701AC46ACE8C0097C
:103A9000ACE8C009ACE8C009ACE8C0098D46704785
:103AA0000446AFF300802046FEF7CCFF002801D08B
:103AB00004F0A9BB7047000010B5012805D0002113
:103AC00003A000F021F8012010BD09A1F8E70000D3
:103AD00053494752544D454D3A204F7574206F66F7
:103AE0002068656170206D656D6F7279000000005F
:103AF0003A2048656170206D656D6F727920636F43
:103B0000727275707465640070B505460C460A20C3
:103B100000E06D1C04F07BFB35B128780028F8D15B
:103B200002E0641C04F073FB14B120780028F8D183
:103B3000BDE870400A2004F06ABB5FEA400C08BF91
:103B400091F0000F4FEA8C234FEAC12243EA515112
:103B50004FEA1C5018BF00F5F0404FEA300018BF84
:103B600041F000415FEA6C5C00F02980BCF1FF3F4E
:103B700008BF40F080407047130C06BF12044FF09E
:103B8000100C4FF0000C130E04BF12020CF1080CC5
:103B9000130F04BF12010CF1040C930F04BF920029
:103BA0000CF1020CD30F04BF52000CF1010C1146B2
:103BB0004FF00002A0F11F00A0EB0C00704711F0C5
:103BC000004F08BF704731F000413FF4D5AF0B0CF8
:103BD00006BF09044FF0100C4FF0000C0B0E04BF91
:103BE00009020CF1080C0B0F04BF09010CF1040CC5
:103BF0008B0F04BF89000CF1020CCB0F04BF4900EE
:103C00000CF1010CCCF12003A0EB0C0022FA03F321
:103C100002FA0CF241EA030100F10100704720F0C2
:103C20007F4C80EA030023F07F47ACEB070303F5EA
:103C30007C5300F0004003F1FF032DE980494FEA77
:103C4000154B09B44FEA144325EA0B4E24EA034806
:103C50000FF2042606EB132749083E785FEA32028A
:103C600003FB0667C7F5000707FB06F64FEA543764
:103C70004FEAD64606F1020607FB066CCCF1005C63
:103C80004FEA1C472CEA074C07FB06F40CFB06F531
:103C900004EB15464FEA961634BF00204FF0004063
:103CA0004FEAD13706FB07FC4FEA1C4C0CFB0BF725
:103CB000D21B03FB0CF761EB07010CFB0EF7B0EB1B
:103CC000074072EB17420CFB08F734BFA2EB074228
:103CD000B2EB074261EB17414FEA0C444FEA910700
:103CE00006FB07FC4FEA1C4C0CFB0BF7B0EBC74084
:103CF00072EB573203FB0CF734BFA2EBC742B2EBB7
:103D0000C74261EB57310CFB0EF7B0EBC70072EB0B
:103D100057720CFB08F734BFA2EBC702B2EBC70225
:103D200061EB5771039F4FEA816141EA921104EB05
:103D3000CC044FEAD1374FEA826206FB07FC42EA25
:103D400090124FEA80604FEA1C4C0CFB0BF7D21B21
:103D500003FB0CF761EB07010CFB0EF7B0EB074020
:103D600072EB17420CFB08F734BFA2EB0742B2EB31
:103D7000074261EB17414FEA8C554FEA910704EB7C
:103D80009C2406FB07FC4FEA1C4C0CFB0BF7B0EB2A
:103D9000C74072EB573203FB0CF734BFA2EBC742AC
:103DA000B2EBC74261EB57310CFB0EF7B0EBC7002B
:103DB00072EB57720CFB08F734BFA2EBC702B2EBF1
:103DC000C70261EB577115EB4C254FEA816141EA5F
:103DD00092114FEA82624FEAD13742EA901206FB13
:103DE00007FC44F100044FEA80604FEA1C4C0CFBD6
:103DF0000BF7D21B03FB0CF761EB07010CFB0EF773
:103E0000B0EB074072EB17420CFB08F734BFA2EB94
:103E10000742B2EB074261EB174115EB1C154FEA65
:103E2000813141EA92414FEA823242EA90424FEABE
:103E300080304FEA0C7644F1000448EA03434EEA2E
:103E40000B484FF0000EB2EB080C71EB030724BFD8
:103E5000624639464EEB0E0E4FF0000B00185241F1
:103E600049414BEB0B0BB2EB080C71EB03077BF1F9
:103E7000000B24BF624639464EEB0E0E4FF0000B8E
:103E80000018524149414BEB0B0BB2EB080C71EBA4
:103E900003077BF1000B24BF624639464EEB0E0E42
:103EA00051EA020718BF46F0010616EB0E7655F1EF
:103EB000000254F1000103D5BDE88901BDE8008886
:103EC000BDE88901BDE80048B619524141EB010146
:103ED000A3F10103704780807F7E7D7C7B7A7978B7
:103EE000777676757473727171706F6E6E6D6C6CBF
:103EF0006B6A6A6968686766666564646363626161
:103F00006160605F5F5E5E5D5D5C5C5B5B5A5A59E1
:103F1000595858575756565555555454535352524D
:103F20005251515050504F4F4F4E4E4D4D4D4C4CA5
:103F30004C4B4B4B4A4A4A494949484848474747EE
:103F4000474646464545454444444443434343422B
:103F5000424242414141002B26D4770021D01CB57A
:103F60004FEA370703B44FF010004FF010014FF045
:103F700000000FBCBDE810400BF1010BBBF1010FBD
:103F800008BF5FEA170722BF12F1010211F1010118
:103F90004FF0004143F1000300F0004043EA00000D
:103FA0007047F9D35708DAE746EA064613F1400F9F
:103FB0004FEA16461FDD13F1200FDFBF16430A46F6
:103FC000002120335B42C8D0C3F1200746EA0646F1
:103FD00002FA07F74FEA164646EA0706C3F120073A
:103FE00022FA03F201FA07F721FA03F14FF0000376
:103FF00042EA0702B1E746EA020646EA06464FEA07
:10400000164646EA0106BCBF46EA0646360C4FF0A5
:1040100000034FF000024FF000019EE72DE9C04879
:10402000934630B491E8380007C831EA400C48BFE5
:1040300034EA430C03D5FFF7F2FDFFF78CFFF0BC29
:10404000BDE800882DE9C048934630B491E83800B7
:1040500007C810F0804F08BF13F0804F03D100F065
:1040600005F8FFF778FFF0BCBDE8008820F07F4737
:1040700080EA030023F07F4C07EB0C03A3F57C538D
:1040800000F00040A3F1FE0392F0000F00F0B380B7
:1040900095F0000F00F077802DE901494FEA1140BB
:1040A0004FEA144621EA004800FB06FC24EA0647D2
:1040B00008FB06F607FB08F800FB07F718EB0648B5
:1040C0004CEB164C4FEA124B18EB07484FEA1546DB
:1040D0004CEB174022EA0B4E0BFB06FC25EA064789
:1040E0000EFB06F607FB0EFE0BFB07F71EEB064E5C
:1040F0004CEB164C4FF000061EEB074E4CEB174BEB
:1041000018EB0B0840F1000018EB0E0B58EB000801
:1041100040F100008F1A4FF000013CBFC943661BFD
:1041200014BFB5EB040C00213CBFC943F61B4FEA9A
:1041300017444EEA8E0E27EA04454FEA1C4704FB5B
:1041400007622CEA074C05FB07F70CFB05F604FB9E
:104150000CFC16EB074642EB174216EB0C4642EB03
:104160001C421BEB060658EB0202414146EA9E0642
:1041700001D5BDE80189B619524141EB0101A3F116
:104180000103BDE801894FEA14454FEA114724EACB
:10419000054621EA074C05FB07F406FB07F70CFB75
:1041A00006F105FB0CFC11EB074144EB17444FEA09
:1041B000124711EB0C4144EB1C4422EA074C05FB6F
:1041C00007F206FB07F70CFB06F605FB0CFC16EBEB
:1041D000074642EB174216EB0C4642EB1C456A18A9
:1041E00054F1000148BF7047B619524141EB01013B
:1041F000A3F10103704795F0000F37D04FEA114249
:104200004FEA144721EA024624EA074C02FB07F171
:1042100006FB07F70CFB06F402FB0CFC14EB07444F
:1042200041EB17414FEA154714EB0C4441EB1C419D
:1042300025EA074C02FB07F506FB07F70CFB06F621
:1042400002FB0CFC16EB074645EB174516EB0C463C
:1042500045EB1C42121951F1000148BF7047B619D5
:10426000524141EB0101A3F1010370474FEA1445AC
:104270004FEA114724EA054621EA074C05FB07F1FE
:1042800006FB07F70CFB06F24FF0000605FB0CFCE3
:1042900012EB074241EB174112EB0C4251EB1C4170
:1042A00048BF7047921841EB0101A3F10103704729
:1042B00010B50948408C012803D1002006494884E4
:1042C00002E0012004494884034890F822100620A7
:1042D00006F0ECF910BD0000801A00201CB50EA1FC
:1042E00003C9CDE900010E48808A01280AD10020C7
:1042F0008DF807000821684601F09EF80020084963
:10430000888208E00120064988828DF8070008218C
:10431000684601F091F81CBD5AA5058210090000FD
:10432000801A002008B50121102001F089FB4FF40C
:104330000050ADF8000010208DF8030002208DF829
:1043400002006946064800F08FFC002001F002FCE4
:104350004FF40051024800F05FFD02F05FFF08BD1E
:10436000001001400EB50020009001900290032043
:104370008DF8000002208DF8010000208DF8020069
:104380008DF8030002208DF804008DF805006946C1
:1043900005200AF0E5FE0EBD0EB50020009001904C
:1043A000029002208DF800008DF8010000208DF8A9
:1043B00002008DF8030002208DF804008DF805003E
:1043C000694605200AF0CCFE0EBD0EB50020009017
:1043D0000190029004208DF8000002208DF8010069
:1043E00000208DF802008DF8030002208DF80400F3
:1043F0008DF80500694605200AF0B2FE0EBD0EB527
:10440000002000900190029005208DF8000002200D
:104410008DF8010000208DF802008DF803000220C5
:104420008DF8040001208DF80500694605200AF08A
:1044300097FE0EBD0EB50020009001900290022064
:104440008DF800008DF8010000208DF802008DF835
:10445000030002208DF8040001208DF80500694654
:1044600005200AF07DFE0EBD7FB505460024394BC0
:104470000FCB8DE80F0038480078012800D17FBDB0
:104480000120354908704FF4167008F097F8334949
:1044900008600846006800B9F1E74AE0287830383B
:1044A0003DF8100061002D4A126822F8110068786A
:1044B0005F280DD16100294A126832F8110000EB23
:1044C000D07149106200254B1B6823F8121010E0D0
:1044D00068787E280DD160002049096831F8100005
:1044E0004FF6FF7101EA400061001C4A126822F891
:1044F0001100A8793038082191FBF0F0012101EB7F
:104500004401164A126822F81100012000EB440011
:104510001249096831F810002979303948430121DE
:1045200001EB44010D4A126822F811000835601CA5
:1045300084B228780028B1D1012101EB4401074A57
:10454000126822F811000121054802F0CAFE00BFDE
:1045500095E70000E40C0108980000209C00002072
:104560000004004001F076F902460021012109E033
:104570004B00084830F81300904201D101207047E9
:10458000481C81B24B00034830F813000028EFD1DB
:1045900000BFF4E7A81A0020002000BF04E00021BB
:1045A000034A1154411C88B23A28F8DB70470000D6
:1045B0002F1A00207FB505460C46002600200190EA
:1045C000029003900090FF208DF804008DF8050004
:1045D00028128DF80600E8B28DF8070001208DF84A
:1045E000080000208DF8090002208DF80A00002044
:1045F0008DF80B0010208DF80C006A46092101A8E7
:1046000000F0C8FC9DF800008DF80D009DF8010039
:104610008DF80E000B2101A801F0B6FA00BF30E0C2
:10462000C82004F0C7FF1921204601F0C9FA30B3B1
:10463000A079C11D6A46204600F0ACFC9DF8001030
:10464000A079C01D205C814219D19DF80110A0798C
:104650000830205C814212D1E078A17840EA012044
:10466000A8420CD120799DF8081041F080018842C1
:1046700005D1207AE17940EA012004B070BD701CB8
:10468000C6B2052ECCDB0A20F7E72DE9F0418EB04B
:1046900004460D4616461F464FF0000800200290C3
:1046A0000390049005900190FF208DF808008DF88C
:1046B000090020128DF80A00E0B28DF80B000320EB
:1046C0008DF80C0000208DF80D0003208DF80E00F1
:1046D0008DF80F508DF810608DF8117001AA0A2125
:1046E00002A800F057FC9DF804008DF812009DF818
:1046F00005008DF813000C2102A801F045FA00BF57
:104700003DE0C82004F056FF182106A801F058FA31
:1047100080B39DF81E00C11D01AA06A800F03AFC56
:104720009DF804109DF81E00C01D06AA105C814271
:1047300021D19DF805109DF81E000830105C8142C3
:1047400019D19DF81B009DF81A1040EA0120A042E3
:1047500011D19DF81C009DF80C1041F08001884299
:1047600009D19DF820009DF81F1040EA01200EB0ED
:10477000BDE8F081FFE708F101001FFA80F8B8F109
:10478000050FBEDB0A20F2E72DE9F04706460F468B
:1047900090461C464FF0004020FA04F50C48006893
:1047A000284010B10120BDE8F0870948006828437F
:1047B00007490860002342463946304601F086F832
:1047C000814622464946304601F00CF90020EAE7CE
:1047D0002801002001F03EF810B50446A0B204F014
:1047E000E9FE10BDFEB504460E46154600200090B9
:1047F0000190029002208DF80000022C52D1A6B345
:10480000012D17D101208DF801008DF802006946B5
:1048100004200AF0A5FC694602200AF0A1FC002051
:104820008DF8010002208DF80200694604200AF08C
:1048300097FCADE0022DFCD101208DF80100022093
:104840008DF80200694604200AF08AFC69460220BD
:104850000AF086FC00208DF8010001208DF802008E
:10486000694604200AF07CFC92E0FFE700208DF806
:10487000010001208DF80200694604200AF070FC56
:10488000694602200AF06CFC00208DF8010002202D
:104890008DF8020069460AF063FC694604200AF0BC
:1048A0005FFC75E0032C01D0052C51D19EB3012D86
:1048B00017D101208DF8010003208DF80200694610
:1048C00004200AF04DFC694602200AF049FC002051
:1048D0008DF8010004208DF8020069460AF040FCC2
:1048E00056E0022D54D101208DF8010004208DF8EE
:1048F000020069460AF034FC694602200AF030FCE6
:1049000000208DF8010003208DF802006946042084
:104910000AF026FC3CE0FFE700208DF801000420AF
:104920008DF8020069460AF01BFC694602200AF075
:1049300017FC00208DF8010003208DF80200694665
:1049400004200AF00DFC694602200AF009FC1FE071
:10495000042C1DD176B101208DF8010006208DF8C0
:104960000200694604200AF0FBFB694602200AF0B7
:10497000F7FB0DE000208DF8010006208DF8020005
:10498000694604200AF0ECFB694602200AF0E8FBC5
:10499000FEBD000070B500240025102000F05CF87A
:1049A00000284AD0102000F051F800BF152001F077
:1049B000ABFA044604F0F001152003F0DBFA1F48BF
:1049C0000470172001F0A0FA044604F0010058B169
:1049D0000221002001F0BAFA05462A4602210020F1
:1049E00003F0F8FA1648057004F0020002280BD113
:1049F0000221012001F0AAFA05462A4602210120DF
:104A000003F0E8FA0F48057004F0040004280BD105
:104A10000221084601F09AFA05462A460221084674
:104A200003F0D8FA08480570172001F06DFA002845
:104A3000BCD10121072002F011FD70BD85010020CD
:104A400086010020870100208801002001490860BC
:104A50007047000014040140014600200022074B6B
:104A60001B6803EA0102054B14331B680B4013B1AA
:104A70000AB1012000E0002070470000000401405E
:104A8000002123498279002A3AD00A461268036835
:104A90009A430B461A600A1D126803689A430B1D5D
:104AA0001A60027911440A6803681A430A60184AB6
:104AB0000832126803689A43154B08331A601A1DAE
:104AC000126803689A43124B0C331A604279102A19
:104AD0000ED11A1F126803681A430D4B08331A606F
:104AE0001A1D126803681A43094B0C331A600DE053
:104AF0000749427911440A6803681A430A6005E0CD
:104B0000027911440A6803689A430A6070470000FA
:104B10000004014030B5044604254FF4302000F075
:104B20006FF80546042D17D10C48006940F00200CB
:104B30000A49086108464461006940F04000086184
:104B40004FF4302000F05CF805460448006941F657
:104B5000FD71084001490861284630BD002002402F
:104B600004200B49C96801F0010109B101200EE0E0
:104B70000749C96801F0040109B1022007E00449AE
:104B8000C96801F0100109B1032000E0042070475A
:104B9000002002400348006940F08000014908619C
:104BA000704700000020024070B504460D46042600
:104BB000F00200F025F80646042E11D109480069DC
:104BC00040F00100074908612580F00200F018F864
:104BD00006460448006941F6FE7108400149086133
:104BE000304670BD00200240024803494860034837
:104BF000486070472301674500200240AB89EFCD34
:104C000000B502460423FFF7ABFF034603E0FFF7BE
:104C1000A7FF0346521E012B01D1002AF7D102B98A
:104C20000523184600BD000030B500228B071C0F7D
:104C30000F2303FA04F20B4B8C1053F824309343E8
:104C4000084C8D1044F8253023468C1053F824303E
:104C50008C07240F00FA04F42343024C8D1044F80F
:104C6000253030BD080001402DE9F0410246002505
:104C70000026002000230024002791F803C00CF038
:104C80000F0591F803C00CF0100CBCF1000F03D01D
:104C900091F802C04CEA050591F800C0BCF1000F84
:104CA00031D0146800202BE04FF0010C0CFA00F317
:104CB000B1F800C00CEA03069E4220D183004FF0F9
:104CC0000F0C0CFA03F7BC4305FA03FC4CEA04048E
:104CD00091F803C0BCF1280F06D14FF0010C0CFA7B
:104CE00000FCC2F814C00AE091F803C0BCF1480F00
:104CF00005D14FF0010C0CFA00FCC2F810C0401CAA
:104D00000828D1D31460B1F800C0BCF1FF0F34DD26
:104D1000546800202EE000F1080C4FF0010808FA5A
:104D20000CF3B1F800C00CEA03069E4221D18300C7
:104D30004FF00F0C0CFA03F7BC4305FA03FC4CEAE6
:104D4000040491F803C0BCF1280F05D100F1080C50
:104D500008FA0CF8C2F8148091F803C0BCF1480FAF
:104D600007D100F1080C4FF0010808FA0CF8C2F85E
:104D70001080401C0828CED35460BDE8F0810000AC
:104D8000F0B50A46002300240021002500F000466B
:104D9000B6F1004F02D11D4EF16901E01B4E716862
:104DA000C0F3034583B200F44016B6F5401F08D1A6
:104DB00021F07061154E766826F07066134F7E60A4
:104DC00012E000F48016B6F5801F06D1032606FA1D
:104DD00005F4A14341F0706106E0460D360103FA87
:104DE00006F6B14341F0706122B1460D360103FA77
:104DF00006F6314300F00046B6F1004F02D1034EF3
:104E0000F16101E0014E7160F0BD00000000014061
:104E10000146886880B27047416170470161704700
:104E2000004870474E19002000487047A81A00201B
:104E30000246002100BF0DE0012000EB41000A4BBB
:104E400013F81000904203D1480033F81000704767
:104E5000481C81B2012000EB4100034B33F81000E5
:104E60000028E9D100BFF2E74C00002002460021F3
:104E7000012110E04B000C4830F81300904208D19B
:104E8000012000EB4103084830F8130000F47F4094
:104E90007047481C81B24B00034830F813000028CB
:104EA000E8D1FF20F4E70000A81A00200246002104
:104EB00000BF0EE04B000B4830F81300904206D1C3
:104EC000012000EB4103074810F813007047481C0D
:104ED00081B24B00034830F813000028EAD1FF20CC
:104EE000F4E70000A81A002030B502460B46002166
:104EF0000024012112E0012000EB41050C4810F8CC
:104F00001500904208D19C4204D14D00084830F869
:104F1000150030BD601C84B2481C81B2012000EB3A
:104F20004105034830F815000028E4D100BFF0E740
:104F3000A81A002013490988C82904DA1249114A1D
:104F40001288885C05E000210E4A11800E49128803
:104F5000885C00210D4A11600B4A0A4B1B88D15412
:104F60000B49098821B10A490988491E084A11805C
:104F70000121064A116003490988491C014A118030
:104F80007047000076000020671900209401274236
:104F90007C000020F0B50B46FF24FF2509E010F847
:104FA000016B86EA0401074E765C86EA0504064E2C
:104FB000755C1E00A3F10107BBB2F0D114705570EF
:104FC000F0BD0000F40C0108F40D010810B5014615
:104FD0004A1E034B985C00234A1E014CA35410BD8B
:104FE000180000200148008D70470000801A002042
:104FF00000487047101C002010B50446002300BF75
:1050000004E00548C05CE054581C83B23A2BF8DB3E
:10501000FFF7C2FA184610BD2F1A002010B5244819
:10502000C08B01280ED10121084605F03FFB64200A
:1050300004F0DAFA0021022005F038FB642004F0C5
:10504000D3FA20E01A48C08B02280ED1002101209B
:1050500005F02CFB642004F0C7FA0121022005F0C2
:1050600025FB642004F0C0FA0DE00021012005F0CA
:105070001DFB642004F0B8FA0021022005F016FBA5
:10508000642004F0B1FA0A48408C012807D10121BC
:10509000062005F00BFB642004F0A6FA06E00021D0
:1050A000062005F003FB642004F09EFA10BD00000A
:1050B000801A002000F0CEFB1CB5044609A103C9EC
:1050C000CDE90001E07960B9207A052809D1607A3C
:1050D0000D2806D1A07AC02803D10621684600F029
:1050E000ABF91CBD5AA503804F02000010B5FF2488
:1050F0007148FFF78DFE00F00F0494B96F480078F7
:10510000F8B96F480078401C6D490870084600786F
:10511000502816DB02206B4908700120674908708F
:105120000FE067480078012806DD654800785028C0
:1051300002DA0120634908700020614908705F4964
:105140000870012C12D15D484078F8B95C4840786D
:10515000401C5B49487008464078502816DB022006
:10516000584948700120554948700FE0544840782C
:10517000012806DD52484078502802DA01205149C2
:10518000487000204E4948704C494870022C12D19A
:105190004A488078F8B94A488078401C4849887065
:1051A00008468078502816DB022046498870012086
:1051B000424988700FE042488078012806DD404867
:1051C0008078502802DA01203E49887000203C494E
:1051D00088703A498870032C12D13848C078F8B9E1
:1051E0003748C078401C3649C8700846C0785028F7
:1051F00016DB02203349C87001203049C8700FE027
:105200002F48C078012806DD2D48C078502802DAE2
:1052100001202C49C87000202949C8702749C8704E
:10522000042C12D125480079F8B925480079401C92
:105230002349087108460079502816DB02202149CD
:10524000087101201D4908710FE01D4800790128EF
:1052500006DD1B480079502802DA0120194908713F
:1052600000201749087115490871052C12D11348FF
:105270004079F8B912484079401C114948710846F4
:105280004079502816DB02200E49487101200B4955
:1052900048710FE00A484079012806DD0848407946
:1052A000502802DA0120074948710020044948715A
:1052B0000249487110BD0000001001402400002088
:1052C0001E0000201800002008B50121102000F069
:1052D000B7FB0121102000F0B3FB0F20ADF8000058
:1052E00048208DF8030003208DF802006946054828
:1052F000FFF7BAFC0121084600F0A2FB01F0BEFF57
:1053000008BD00000010014010B586B00446012120
:10531000042000F095FB0121082000F091FB012101
:10532000480400F06DFB4FF48050ADF814001020DD
:105330008DF8170003208DF8160005A92A48FFF7FD
:1053400093FC0420ADF8140018208DF8170005A96F
:105350002648FFF789FC0820ADF8140004208DF8DA
:10536000170005A92148FFF77FFC0121480400F040
:1053700057FB00214FF4003000F052FB0194002055
:10538000ADF80800ADF80A00ADF80C00ADF810005B
:105390000C20ADF80E0001A9154802F0BFFB262035
:1053A0008DF8000000208DF8010002208DF8020029
:1053B00001208DF80300684600F000FA012240F257
:1053C00025510B4802F085FB012240F22441084898
:1053D00002F07FFB0121064802F0E9FA00200549AE
:1053E000086006B010BD0000000C0140000801403C
:1053F00000440040B081214230B503460C4C227875
:10540000002000240C800A4C2478A2420FD172B1F3
:1054100000BF04E0074C245C1C54441CE0B29042E2
:10542000F8DB034C24780C800024014D2C7030BD37
:105430002B000020B017002070B505460E46012055
:105440000F49086000240CE000BF40210D4802F025
:1054500009FB0028F9D0295D0A4802F0D0FB601C46
:10546000C4B2B442F0DB00BF4021064802F0FAFAB1
:105470000028F9D00020044908700149086070BD77
:10548000B0812142004400402B000020202801D29E
:1054900001490870704700002A0000201CB506A1D1
:1054A00003C9CDE900013F208DF8050006216846BB
:1054B000FFF7C2FF1CBD00005AA5038001000000D9
:1054C0001CB506A103C9CDE9000100208DF8050037
:1054D00006216846FFF7B0FF1CBD00005AA50380F7
:1054E000010000000148408C70470000801A002035
:1054F0000146052903DA034830F8110070470020FF
:10550000FCE70000801A0020014948847047000031
:10551000801A002008B50121102000F091FA4FF404
:10552000C070ADF8000010208DF8030003208DF846
:10553000020069461948FFF797FB002018490860E8
:105540001849C1F8A0010121082000F079FA0120D2
:10555000ADF8000010208DF8030003208DF8020044
:1055600069461148FFF780FB0121042000F068FA2A
:105570000220ADF8000010208DF8030003208DF804
:10558000020069460948FFF76FFB002008490860E0
:1055900005F02AFC05F056F808BD00000010014097
:1055A0009C01224200002242000C01400008014000
:1055B0008081214210B50024C8221849184801F002
:1055C00055F900BF1FE0154830F814004FF6FF7181
:1055D000884203D10021114820F8141004F0010082
:1055E00078B10E4810F8141020F8141010F81400B8
:1055F00038B10A4830F8140040F40061074820F838
:105600001410601C84B2C82CDDDB04482838408D9F
:1056100040F4807101482838418510BDA81A002047
:1056200028FC03081CB500240020009001901848B5
:10563000808BADF800001648C08BADF8020014480E
:10564000008CADF804001248408CADF8060014221E
:105650000F49104801F00AF900BF0CE00C4830F87F
:1056600014004FF6FF71884203D10020084921F849
:105670001400601C84B2142CF0DBBDF80000044957
:105680008883BDF80200C883BDF8040008841CBDEF
:10569000801A002000FC030810B5064906220648BF
:1056A00006F0A2FF0448007800F0FE0002490870EE
:1056B00010BD0000EAF7FF1F8500002070B54FF411
:1056C000C86006F07BFF05462C4614A214A12046B4
:1056D00009F004FF083411A212A1204609F0FEFED1
:1056E00008340EA210A1204609F0F8FE08340BA2DF
:1056F0000EA1204609F0F2FE08340DA20DA12046AD
:1057000009F0ECFE0834204604F042FD2846FEF77E
:10571000ABFE284606F03EFF70BD0000312F320080
:1057200035000000340000003300000032000000AB
:10573000312F31003100000070B54FF4C86006F021
:105740003DFF05462C4614A214A1204609F0C6FED2
:10575000083411A212A1204609F0C0FE08340EA29E
:1057600010A1204609F0BAFE08340BA20EA1204673
:1057700009F0B4FE08340DA20DA1204609F0AEFEDA
:105780000834204604F004FD2846FEF76DFE284646
:1057900006F000FF70BD0000312F32003100000024
:1057A000320000003300000034000000312F3100CF
:1057B0003500000000F04EF800F04CF870B5002104
:1057C00000230F22C47804B3154C246804F4E06469
:1057D000C4F5E064210AC1F10403CA40447804FA24
:1057E00003F184781440214309010E4C0678A15539
:1057F000047804F01F050124AC4005786D11AD005C
:1058000005F1E025C5F8004109E0047804F01F0522
:105810000124AC40044D0678761145F8264070BD51
:105820000CED00E000E400E080E100E0024901430B
:10583000024A1160704700000000FA050CED00E01C
:10584000024A0A400243024B1A60704780FFFF1F62
:1058500008ED00E00648006800F4E06005490843F0
:10586000001D03490860BFF3408F00BFFEE7000042
:105870000CED00E00000FA0510B50D480068B0B965
:105880000C480068FDF727F90B49086008460068D6
:105890000A4908600A480849096800EB01100949EB
:1058A00008600846006808490860FDF7D8F810BD90
:1058B0000801002028010020100100200C01002018
:1058C000641D0020180100201401002070B504465A
:1058D00010464FF080750560051F28462C606FF05C
:1058E0000106051F28462E604FF01236051F284678
:1058F0002E604FF00336051F28462E604FF002360B
:10590000051F28462E607610051F28462E60051FAD
:10591000284629604FF01136051F28462E604FF0AB
:105920001036051F28462E604FF00936051F284601
:105930002E604FF00836051F28462E604FF00736C0
:10594000051F28462E604FF00636051F28462E609C
:105950004FF00536051F28462E604FF00436051F10
:1059600028462E6070BD000010B5FDF771F80446A2
:1059700004480078401C034908702046FDF76CF885
:1059800010BD00002401002070B52024FDF760F850
:1059900005460F48007820B10D480078401E0C499C
:1059A00008702846FDF758F80A480068FDF793F894
:1059B000044609480068844208D207480460074842
:1059C00000EB041006490860FDF75AF870BD0000AE
:1059D000240100202801002010010020641D002067
:1059E000180100200346054800EB0210016003483F
:1059F00000EB02104360002070470000641D00208F
:105A000029B1064AD2690243044BDA6104E0034A31
:105A1000D2698243014BDA617047000000100240F6
:105A200029B1064A12690243044B1A6104E0034A91
:105A300012698243014B1A61704700000010024056
:105A400029B1064A92690243044B9A6104E0034A71
:105A500092698243014B9A61704700000010024036
:105A600029B1064AD2680243044BDA6004E0034AD3
:105A7000D2688243014BDA60704700000010024098
:105A800030B500210022002400232D4D6D6805F063
:105A90000C0121B1042905D0082923D105E0294DA5
:105AA000056022E0274D05601FE0254D6D6805F477
:105AB0007012234D6D6805F48034022505EB924287
:105AC0001CB9214D554305600BE01D4D6D6805F473
:105AD00000351DB11C4D5543056002E0194D55437D
:105AE000056002E0174D056000BF00BF144D6D68F2
:105AF00005F0F0010909154D6B5C0568DD40456056
:105B00000F4D6D6805F4E061090A104D6B5C456846
:105B1000DD4085600A4D6D6805F46051C90A0B4D82
:105B20006B5C4568DD40C560054D6D6805F440411E
:105B3000890B074D6B5CC568B5FBF3F5056130BD9E
:105B40000010024000127A0000093D009C01002074
:105B5000AC01002000210B4A11700A4A203A82F859
:105B60002010012802D0042808D103E00121054AB1
:105B7000117004E00521034A117000E000BF00BF6E
:105B8000704700002010024070B504460D460DB964
:105B9000002070BD0BE000BF8021084801F062FFCB
:105BA0000028F9D020780549091D0880641C2800C8
:105BB000A5F10101CDB2EED100BFEAE70038014006
:105BC0002DE9F04105460E46002400BF03E0002009
:105BD0002855601C84B2B442F9DB002442F21078EC
:105BE00009E0A8F101001FFA80F8B8F1000F02D116
:105BF0000020BDE8F081214800780028F1D020483D
:105C00000068002838D0002400270CE000F080FF56
:105C1000FF2804D100F090FFFF2800D105E0FFF736
:105C200089F9781C87B2C82FF0DB00BF002410E090
:105C3000FFF780F92855601C84B2B44200D10CE013
:105C400000F066FFFF2804D100F076FFFF2800D1A6
:105C500003E00C4800880028EAD100BF094800880A
:105C600050B90020084908800849086008490880A0
:105C700001200849C1F894012046BAE77E000020BF
:105C8000200121427C000020760000209401274260
:105C9000780000200000274210B586B0044601219C
:105CA0000420FFF7CDFE01218803FFF7C9FE464817
:105CB00001F08AFE4FF48070ADF8140004208DF8D6
:105CC000170003208DF8160005A94048FEF7CCFF09
:105CD0004FF480713D48FFF7A1F84FF40060ADF834
:105CE000140010208DF8170003208DF8160005A968
:105CF0003648FEF7B9FF4FF400613448FFF78CF8DF
:105D00004FF48050ADF8140010208DF817000320D8
:105D10008DF8160005A92D48FEF7A6FF4FF4805117
:105D20002A48FFF779F84FF40070ADF8140002200C
:105D30008DF8160018208DF8170005A92348FEF7E6
:105D400093FF4FF48060ADF8140004208DF8170025
:105D500005A91E48FEF788FF25208DF800000020C9
:105D60008DF801008DF8020001208DF803006846CF
:105D7000FFF724FD01940020ADF80800ADF80A00FB
:105D8000ADF80C00ADF810000C20ADF80E000021AD
:105D90000D4801F00CFE0C4801F016FE01A90A485E
:105DA00001F0BCFE012240F22551074801F091FEAE
:105DB000012240F22441044801F08BFE01210248F7
:105DC00001F0F5FD06B010BD0038014000080140AB
:105DD000202801D20149087070470000740000209B
:105DE0002DE9F04780460D462621404600F0D6F8C2
:105DF000064616B90020BDE8F08740F2B45086424E
:105E000000DD06462821404600F0C8F80746B9469E
:105E1000C7F30A0710213A48FEF7FEFF384600F0A4
:105E2000ABFB182101EB4811C8B200F095FB3548D7
:105E300000F0F9FC00F0FF0AB819B0F5006F11DAB4
:105E400000240CE0002000F087FB2E4800F0EBFC63
:105E500000F0FF0A85F800A06D1C601C84B2B442FB
:105E6000F0DB39E0C7F5006087B200240CE00020C9
:105E700000F072FB234800F0D6FC00F0FF0A85F822
:105E800000A06D1C601C84B2BC42F0DB10211C48D9
:105E9000FEF7C4FF10211A48FEF7BEFF002000F0F5
:105EA0006BFB182101EB4811C8B200F055FB1548F7
:105EB00000F0B9FC00F0FF0A0CE0002000F04CFB01
:105EC000104800F0B0FC00F0FF0A85F800A06D1C3F
:105ED000601C84B2B442F0DB10210948FEF79EFF3B
:105EE00009EB06001FFA80F94A462821404602F0D5
:105EF0008FF840220121404602F06CF830467AE7E4
:105F0000000801400030014070B5044610210D48E2
:105F1000FEF782FF204600F02FFB012000F01CFB63
:105F2000094800F080FCC5B2002000F015FB0648CF
:105F300000F079FCC5B210210248FEF76FFF284639
:105F400070BD0000000801400030014070B50446FB
:105F50000D4610210F48FEF75FFF284600F00CFBAE
:105F6000082101EB4411C9B241F0010000F0F4FA3C
:105F7000094800F058FCC6B2002000F0EDFA0648CF
:105F800000F051FCC6B210210248FEF747FF304630
:105F900070BD0000000801400030014070B50546AA
:105FA0000E4610211548FEF737FF304600F0E4FAA0
:105FB000082101EB4511C9B241F0020000F0CCFA12
:105FC0000F4800F030FC0446002000F0C5FA0C48F1
:105FD00000F029FC0446002000F0BEFA4FF6FF70E6
:105FE00000EA0424064800F01EFC204484B210217C
:105FF0000248FEF713FF204670BD00000008014074
:106000000030014008B501210820FFF719FD0420E8
:10601000ADF8000010208DF8030002208DF802007A
:1060200069460448FEF720FE04210248FEF7F6FE0A
:1060300008BD0000000C014010B5012002490860B5
:10604000FF2000F0ABF910BD9801224270B5054663
:1060500001220021092000F0EAF9044624B91021A8
:10606000284600F055F90446FFF7E6FF0CB1012081
:1060700070BD0020FCE770B505464FF6FF7401E0E7
:10608000601E84B2FF2000F089F9A84201D0002CE4
:10609000F6D10CB9FF2070BD0020FCE77FB5684643
:1060A000FFF7D4FF10B1002004B070BD9DF80000D0
:1060B00000F0C000402809D19DF809009DF80810A3
:1060C00000EB0120401C84B2A50220E09DF80500F1
:1060D00000F00F009DF80A1000EBD1109DF8091098
:1060E00001F0030100EB4100861C9DF808008011BF
:1060F0009DF8071000EB81009DF8061001F00301E8
:1061000000EB8120441CA6F1090004FA00F52846A2
:10611000CAE70000F8B500F021F900F04AF90025BF
:1061200004E0FF2000F03AF9681C85B20A2DF8DB84
:10613000142600BF95220021084600F078F9044695
:10614000012C04D03000A6F101018EB2F2D1002062
:1061500051490870012C4AD187224FF4D57108208B
:1061600000F065F9012847D1002506E0FF2000F086
:1061700015F90DF80500681C85B2042DF6DB9DF8B5
:106180000200012879D19DF80300AA2875D14FF6A5
:10619000FE7600BF01220021372000F048F90122DD
:1061A0009107292000F043F9044624B13000A6F1FC
:1061B00001018EB2EED1002E5FD0012200213A20E3
:1061C00000F035F9002858D1002506E0FF2000F046
:1061D000E5F80DF80500681C85B2042DF6DB9DF886
:1061E000000000F0400018B106202B49087044E080
:1061F00004202949087040E001220021372000F0E6
:1062000016F901220021292000F011F90446012C81
:1062100017DC0220204908704FF6FE7600BF0122ED
:106220000021372000F003F901220021292000F08D
:10623000FEF80446BCB13000A6F101018EB2EED1E9
:1062400011E00120144908704FF6FE7600BF0122CC
:106250000021104600F0EBF8044624B13000A6F10E
:1062600001018EB2F3D12EB101225102102000F0B3
:10627000DEF810B1002008490870FFF7DDFE00F0DD
:1062800093F80548007808B10020F8BD0CB120460D
:10629000FBE7AA20F9E70000DE0000202DE9F0412D
:1062A00006460F46154619480078062800D07F029A
:1062B000012D0CD101223946112000F0B8F8044616
:1062C000FCB96902304600F023F8044619E00122C7
:1062D0003946122000F0ABF8044600BF4FF40071BD
:1062E000304600F015F8044606F50076681EC0B288
:1062F000050001D0002CF1D0012200210C2000F07B
:1063000096F8FFF799FE2046BDE8F081DE000020F8
:1063100070B504460D46FE20FFF7ADFE08B1012022
:1063200070BD04E0FF2000F07FF92070641C28009D
:10633000A5F101018DB2F5D1FF2000F02FF8FF206B
:1063400000F02CF80020EBE710B500F032F8FF2049
:1063500000F024F800F028F810BD000008B5012175
:106360001020FFF76DFB10208DF8030003208DF83F
:1063700002004020ADF8000069460648FEF774FCB4
:1063800040210448FEF74AFD00F004F901200249CB
:10639000086008BD001001409801224210B5044673
:1063A000204600F041F910BD10B5002000F066F95C
:1063B00010BD10B5382000F061F910BD10B50020F7
:1063C0000549086000F06FF808B9002010BDFFF71C
:1063D00033FE0120FAE700009801224270B506461C
:1063E0000D4600F060F808B1012070BD2846FFF7A7
:1063F000D5FFFD2D19D0002404E0305D00F014F924
:10640000601C84B2B4F5007FF7DBFF20FFF7C6FF06
:10641000FF20FFF7C3FFFF20FFF7C0FF044604F093
:106420001F00052801D00220DFE70020DDE72DE96D
:10643000F04105460C4617464FF00008FFF7FCFDFB
:10644000FFF7BCFF10B1FF20BDE8F08145F0400030
:10645000FFF7A4FF200EFFF7A1FFC4F30740FFF7EB
:106460009DFFC4F30720FFF799FFE0B2FFF796FF07
:106470003846FFF793FF0C2D02D1FF20FFF78EFF68
:106480004FF01F0800BFFF20FFF788FF064606F009
:10649000800030B15FEA0800A8F1010101F0FF08B7
:1064A000F1D13046D0E710B5002400BFFF20FFF740
:1064B00075FFFF2801D1002010BD641C6FF07F40E4
:1064C0008442F3D30120F7E72DE9F04106460F4659
:1064D000154620480078062800D07F02012D0CD1F7
:1064E000012239461820FFF7A2FF04466CBBFE21AB
:1064F0003046FFF773FF044627E01648007801286E
:1065000009D0012200213720FFF791FF01222946FF
:106510001720FFF78CFF012239461920FFF787FF6C
:10652000044694B900BFFC213046FFF757FF0446EC
:1065300006F50076681EC0B2050001D0002CF2D02E
:10654000FD210020FFF74AFF0446FFF775FD2046B6
:10655000BDE8F081DE00002010B504462146054864
:1065600000F064F900BF0221024800F053F900284E
:10657000F9D010BD0030014070B504462546E11742
:1065800004EB1161C1F30720FFF7E6FFE0B2FFF76C
:10659000E3FF70BD00B587B001210820FFF750FA76
:1065A00001218803FFF72CFA4FF46040ADF8180082
:1065B00018208DF81B0003208DF81A0006A9184832
:1065C000FEF752FB4FF460411548FEF727FC002010
:1065D000ADF804004FF48270ADF806000020ADF86D
:1065E00008000220ADF80A000120ADF80C004002BE
:1065F000ADF80E003820ADF810000020ADF8120004
:106600000720ADF8140001A9064800F011F9012196
:10661000044800F047F8FF2000F006F807B000BD7E
:10662000000C01400038004070B50546002405E02C
:10663000601CC4B2C82C01DD002070BD02210E48D0
:1066400000F0E8F80028F3D029460B4800F0EEF8F7
:10665000002405E0601CC4B2C82C01DD0020ECE77A
:106660000121054800F0D6F80028F3D0024800F0D8
:10667000DAF8C0B2E1E700000038004010B5044687
:10668000074800884FF6C77108400549088008464A
:106690000088204308800121014800F003F810BD64
:1066A0000038004021B1028842F04002028004E03C
:1066B00002884FF6BF731A400280704700B587B05A
:1066C000012141F20500FFF7BBF9E020ADF8180009
:1066D00003208DF81A0018208DF81B0006A91E480B
:1066E000FEF7C2FAE0211C48FEF798FB1020ADF837
:1066F000180003208DF81A0010208DF81B0006A941
:106700001548FEF7B1FA10211348FEF787FB002069
:10671000ADF804004FF48270ADF806000020ADF82B
:106720000800ADF80A00ADF80C004FF40070ADF8A9
:106730000E000020ADF81000ADF812000720ADF8F3
:10674000140001A9054800F073F801210348FFF780
:10675000A9FF07B000BD0000000801400030014063
:1067600008B501210820FFF76BF901210846FFF762
:1067700067F901211248FEF703FBB020ADF80000D5
:1067800010208DF8030003208DF8020069460D48A3
:10679000FEF76AFA4020ADF8000048208DF80300AB
:1067A00003208DF8020069460648FEF75DFAF021E5
:1067B0000448FEF733FB00F009F80349088008BDE0
:1067C00000023000000C0140E000002010B5002461
:1067D00000200E490860902001F08AFA002001F0A4
:1067E00087FA002001F084FA002001F081FAFF20EE
:1067F00001F07EFA44EA0024FF2001F079FA044314
:1068000001200349C1F89C01204610BD9C81214212
:10681000008021420246002013890B400BB1012069
:1068200000E00020704701468889704781817047E9
:1068300010B50022028802F441520B884C88234391
:106840008C882343CC8823430C8923434C892343DE
:106850008C892343CC8923431A430280838B4FF2D4
:10686000FF74234083830B8A038210BD2DE9F0411E
:1068700007460D461646FFF777F8002407E038462E
:1068800000F00BF825F81400BF1C601C84B2B44261
:10689000F5DBFFF779F8BDE8F0810146088870471D
:1068A0002DE9F74F82B080461646FFF75DF8814923
:1068B000098889B2FF2902D84FF4806101E04FF4C2
:1068C0000061084605F07AFE074627B9FFF75CF835
:1068D00005B0BDE8F08FB8F1006F07D375480088A8
:1068E0000004800900F10060404500D8F0E7FEF7A1
:1068F0007BF9A8F1006B6F48008880B2FF2802D8AE
:106900004FF4806001E04FF40060BBFBF0F9694890
:10691000008880B2FF2802D84FF4806001E04FF475
:106920000060BBFBF0F100FB11B04FEA500A614977
:10693000098889B2FF2902D84FF4806101E04FF441
:106940000061084601EBD071CAEB61018CB2A6422E
:1069500000DC3446A2E05749098889B2FF2902D8F1
:106960004FF4806101E04FF40061019101EBD171BE
:10697000C1F34F024F49098889B2FF2902D84FF469
:10698000806101E04FF4006101FB09F101F1006059
:106990003946FFF76BFF00250AE00AEB050037F8E0
:1069A00010004FF6FF71884200D003E0681C85B2EA
:1069B000A542F2DB00BFA5423DDA3E49098889B213
:1069C000FF2902D84FF4806101E04FF4006101FB20
:1069D00009F101F10060FEF79DF8002508E0039839
:1069E00030F8150005EB0A0127F81100681C85B284
:1069F000A542F4DB2F49098889B2FF2902D84FF458
:106A0000806101E04FF40061019101EBD171C1F3AC
:106A10004F022849098889B2FF2902D84FF48061C2
:106A200001E04FF4006101FB09F101F1006039461A
:106A300000F042F804E022464046039900F03CF89A
:106A4000A64200D12BE009F101094FF0000A03989A
:106A500000EB44000390A044301B86B2154909881E
:106A600089B2FF2902D84FF4806101E04FF4006140
:106A700001EBD171B6EB610F0FDD0E49098889B2C8
:106A8000FF2902D84FF4806101E04FF4006108460D
:106A900001EBD071C1F34F0400E034465BE700BF67
:106AA000FEF778F8384605F075FDFEF76DFF00BF7C
:106AB0000EE70000E0F7FF1F2DE9F04105460E4606
:106AC0001746002407E036F814102846FEF76CF845
:106AD000AD1C601C84B2BC42F5DBBDE8F0817047A0
:106AE00010B5C82202490348FFF7DAFE10BD0000C6
:106AF000A81A002028FC030810B5142202490348F4
:106B0000FFF7CEFE10BD0000801A002000FC030835
:106B100007490988C82904DA0649054A1288885CA9
:106B200005E00021024A118002491288885C704702
:106B30007600002067190020064A1278521CD1B254
:106B4000C82902DA044A505C02E00021024A505C83
:106B500070470000760000206719002010B500F093
:106B600001F810BD0CB5002001900090334800687A
:106B700040F480303149086000BF3048006800F4BC
:106B8000003000900198401C0190009818B90198BD
:106B9000B0F5A06FF1D12948006800F4003010B1C1
:106BA0000120009001E0002000900098012843D1CE
:106BB0002348006840F0100021490860084600683A
:106BC00020F0030008600846006840F002000860FA
:106BD0001A484068194948600846406848600846B5
:106BE000406840F4806048600846406820F47C10AB
:106BF00048600846406840F4E8104860084600686D
:106C000040F08070086000BF0C48006800F0007021
:106C10000028F9D00948406820F00300074948607F
:106C20000846406840F00200486000BF03484068E2
:106C300000F00C000828F9D10CBD00000010024043
:106C40000020024030B502460020012005E000246B
:106C5000134B23F81040431C98B26428F7DB002044
:106C60001AE000EB40035B1CD35C00EB4004145DB6
:106C700043EA0424022303EB4005094B23F81540A3
:106C800000EB40039B1CD45C032303EB4005044B47
:106C900023F81540431C98B28842E2DB30BD000067
:106CA000A81A00201CB5FEF7BDFC2C480188142052
:106CB00003F056FE642002F097FC28484188152016
:106CC00003F04EFE642002F08FFC244881881620D9
:106CD00003F046FE642002F087FC2048C18817209C
:106CE00003F03EFE642002F07FFC1C48018918205E
:106CF00003F036FE642002F077FC184881891920E1
:106D000003F02EFE642002F06FFC1448C1891A20A3
:106D100003F026FE642002F067FC1048018A1B2065
:106D200003F01EFE642002F05FFC0C48418A1C2028
:106D300003F016FE642002F057FC09A103C9CDE957
:106D400000010648007D8DF8070008216846FEF71F
:106D500073FB642002F048FC1CBD0000801A002078
:106D60005AA50582100900000149088570470000F6
:106D7000801A002010B50146002000BF07E00C5C1F
:106D800000F1B402034B23F81240421C90B21028C9
:106D9000F5DB10BDA81A002000B589B0142104A8A5
:106DA000FCF79BF9002003901420964948710721B5
:106DB0009448FEF741FB142002F0FCFB03A904A851
:106DC000FEF71AFB9DF8150014280BD1BDF80C0036
:106DD000092807D19DF818009DF8171040EA0120F6
:106DE00089490880002003901520864948710721B1
:106DF0008448FEF721FB142002F0DCFB03A904A861
:106E0000FEF7FAFA9DF8150015280BD1BDF80C0015
:106E1000092807D19DF818009DF8171040EA0120B5
:106E2000794948800020039016207649487107214F
:106E30007448FEF701FB142002F0BCFB03A904A870
:106E4000FEF7DAFA9DF8150016280BD1BDF80C00F4
:106E5000092807D19DF818009DF8171040EA012075
:106E600069498880002003901720664948710721EE
:106E70006448FEF7E1FA142002F09CFB03A904A881
:106E8000FEF7BAFA9DF8150017280BD1BDF80C00D3
:106E9000092807D19DF818009DF8171040EA012035
:106EA0005949C8800020039018205649487107218D
:106EB0005448FEF7C1FA142002F07CFB03A904A891
:106EC000FEF79AFA9DF8150018280BD1BDF80C00B2
:106ED000092807D19DF818009DF8171040EA0120F5
:106EE000494908810020039019204649487107212B
:106EF0004448FEF7A1FA142002F05CFB03A904A8A1
:106F0000FEF77AFA9DF8150019280BD1BDF80C0090
:106F1000092807D19DF818009DF8171040EA0120B4
:106F200039498881002003901A2036494871072189
:106F30003448FEF781FA142002F03CFB03A904A8B0
:106F4000FEF75AFA9DF815001A280BD1BDF80C006F
:106F5000092807D19DF818009DF8171040EA012074
:106F60002949C881002003901B2026494871072128
:106F70002448FEF761FA142002F01CFB03A904A8C0
:106F8000FEF73AFA9DF815001B280BD1BDF80C004E
:106F9000092807D19DF818009DF8171040EA012034
:106FA00019490882002003901C20164948710721C6
:106FB0001448FEF741FA142002F0FCFA03A904A8D1
:106FC000FEF71AFA9DF815001C280BD1BDF80C002D
:106FD000092807D19DF818009DF8171040EA0120F4
:106FE00009494882FFF788FD002000900190029037
:106FF00006208DF800006946072008F0B1F809B0B6
:1070000000BD000054010020801A002010B5044685
:1070100040F2B4521221002000F0FAFF40F2B452C4
:107020001221012000F0F4FF40F2B452122102209C
:1070300000F0EEFF10BD10B50446022200212046EC
:1070400000F0C8FF01221146204600F0C3FF0520D2
:10705000FDF7C2FB03212046FEF778FF222806D069
:1070600010220121204600F0B5FF002010BDFF20B6
:10707000FCE70000FEF724FA4FF47A7002F09AFA67
:1070800000BF0748006800F4E06006490843001D9F
:1070900003490860BFF3408F00BF00BFFEE7000058
:1070A0000CED00E00000FA0510B500F04FF805F017
:1070B00023FC6420FBF747FD04460A22214602A078
:1070C00007F032F810BD0000303A2F776B5F636F26
:1070D0006E6669672E6A736F6E000000042808D11F
:1070E0004FF0E021096941F004014FF0E022116105
:1070F00007E04FF0E021096921F004014FF0E022A0
:107100001161704710B5002400BF19E00E4800EB74
:107110000410806890B10C4800EB04108068401E99
:10712000094901EB04118860074800EB04108068EE
:1071300020B94FF00041204600F090F9601CC4B225
:10714000202CE3DB10BD0000641D002010B50A48B0
:10715000006840F4E020084908604FF420514FF0E7
:107160000060FEF76DFB4FF4A060FEF75FFBFDF7DC
:10717000D9F8FFF7F5FA10BD24ED00E010B513487B
:10718000006840F001001149086008464068104955
:1071900008400E494860084600680E4908400B49FF
:1071A00008600846006820F48020086008464068AF
:1071B00020F4FE0048604FF41F008860FFF7CEFC0B
:1071C0004FF000600449086010BD0000001002404C
:1071D0000000FFF8FFFFF6FE08ED00E010B501210A
:1071E000054800F08AF828B10121034800F076F83C
:1071F00002F064FE10BD00000004004010B5012143
:10720000054800F07AF828B10121034800F066F83B
:10721000FDF76CFF10BD0000000800401FB5012104
:107220000220FEF7EDFB6320ADF808004720ADF823
:1072300004000020ADF80A00ADF8060001A90E48D0
:1072400000F076F8012211460B4800F067F81D2087
:107250008DF8000000208DF8010003208DF8020059
:1072600001208DF803006846FEF7A8FA01210248C4
:1072700000F037F81FBD0000000400401FB50121D9
:107280000420FEF7BDFB6320ADF8080041F61F4067
:10729000ADF804000020ADF80A00ADF8060001A921
:1072A0000D4800F045F8012211460B4800F036F871
:1072B0001E208DF8000000208DF8010003208DF8BD
:1072C000020001208DF803006846FEF777FA0121DD
:1072D000014800F006F81FBD00080040CA430282C2
:1072E000704721B1028842F00102028004E0028866
:1072F0004FF6FE731A400280704730B502460020F8
:1073000000230024158A05EA0103958905EA010492
:1073100013B10CB1012000E0002030BD1AB1838907
:107320000B43838102E083898B4383817047000094
:10733000002202881D4B98420ED01D4B98420BD064
:10734000B0F1804F08D01B4B984205D01A4B9842A1
:1073500002D01A4B984204D14FF68F731A404B88D3
:107360001A43174B984207D0164B984204D04FF659
:10737000FF431A40CB881A4302808B8883850B8891
:1073800003850A4B98420BD0094B984208D00E4B0C
:10739000984205D00D4B984202D00D4B984201D136
:1073A0000B7A03860123838270470000002C014082
:1073B000003401400004004000080040000C004080
:1073C0000010004000140040004001400044014013
:1073D0000048014070B520242025FBF739FB064604
:1073E0001A48056800201A49184A126801EB021170
:1073F000C86016480178A006C8401649096881434C
:10740000144801603046FBF727FB12480068FBF781
:1074100062FB04460D48006884420AD9202C08D239
:107420000A4804600A4800EB04100B490860FBF7A7
:1074300027FB00BF074800680028FBD00448034929
:10744000096800EB0110C06870BD00001001002049
:10745000641D0020280100201801002070B5054699
:107460000E46202D00D370BD2024124800EB0510DD
:10747000C660A006E8401049096808430E49086044
:107480000E48007800B1EEE70B480068FBF723FBDD
:1074900004460B48006884420AD2202C08D20848CF
:1074A0000460044800EB041006490860FBF7EFFA9B
:1074B00000BFD8E7641D002028010020240100201F
:1074C000100100201801002001464FF0004020FA72
:1074D00001F2034800689043014B18600020704798
:1074E0002801002001464FF0004020FA01F2034835
:1074F00000681043014B18600020704728010020ED
:107500002DE9F04104460E46202C01D3BDE8F08160
:10751000FBF79EFA07462025114800EB0410C660D1
:10752000A806E0400F49096808430E49086038463C
:10753000FBF792FA0B480068FBF7CDFA05460A48BC
:10754000006885420AD2202D08D207480560044809
:1075500000EB051005490860FBF792FA00BFD5E77C
:10756000641D0020280100201001002018010020C7
:107570002DE9F04F91B0AFA103C9CDE90901242055
:107580008DF82900072109A8FDF756FF142002F005
:1075900011F80BA90CA8FDF72FFF9DF83500242842
:1075A00009D1BDF82C00092805D19DF838009DF8B7
:1075B000371040EA012425208DF82900072109A869
:1075C000FDF73AFF142001F0F5FF0BA90CA8FDF719
:1075D00013FF9DF83500252809D1BDF82C00092896
:1075E00005D19DF838009DF8371040EA0125262086
:1075F0008DF82900072109A8FDF71EFF142001F0CE
:10760000D9FF0BA90CA8FDF7F7FE9DF83500262839
:1076100009D1BDF82C00092805D19DF838009DF846
:10762000371040EA012627208DF82900072109A8F4
:10763000FDF702FF142001F0BDFF0BA90CA8FDF718
:10764000DBFE9DF83500272809D1BDF82C0009285C
:1076500005D19DF838009DF8371040EA0127282011
:107660008DF82900072109A8FDF7E6FE142001F096
:10767000A1FF0BA90CA8FDF7BFFE9DF83500282837
:1076800009D1BDF82C00092805D19DF838009DF8D6
:10769000371040EA012829208DF82900072109A880
:1076A000FDF7CAFE142001F085FF0BA90CA8FDF719
:1076B000A3FE9DF83500292809D1BDF82C00092822
:1076C00005D19DF838009DF8371040EA0129642063
:1076D00094FBF0F100FB11400A2190FBF1F201FB59
:1076E0001200642194FBF1F201FB12410A2291FB8A
:1076F000F2F140EA01101FFA80FA642095FBF0F1E4
:1077000000FB11500A2190FBF1F201FB12006421F1
:1077100095FBF1F201FB12510A2291FBF2F140EAD2
:1077200001101FFA80FB642096FBF0F100FB116052
:107730000A2190FBF1F201FB1200642196FBF1F2A9
:1077400001FB12610A2291FBF2F140EA011080B2C2
:107750000890642097FBF0F100FB11700A2190FB68
:10776000F1F201FB1200642197FBF1F201FB1271AF
:107770000A2291FBF2F140EA011080B207906420E6
:1077800098FBF0F100FB11800A2190FBF1F201FB64
:107790001200642198FBF1F201FB12810A2291FB95
:1077A000F2F140EA011080B20690642099FBF0F1FA
:1077B00000FB11900A2190FBF1F201FB1200642101
:1077C00099FBF1F201FB12910A2291FBF2F140EADE
:1077D000011080B2059019A3D3E901021968DB6892
:1077E000CDE90323CDE901100AF0FF008DF80A006E
:1077F0000BF0FF008DF80B000898C0B28DF80C005C
:107800000798C0B28DF80E000698C0B28DF80F0030
:107810000598C0B28DF81000012001F0CBFE0D21BB
:1078200001A8FDF709FE012001F0C4FE11B0BDE87A
:10783000F08F00005AA50483000001005AA50A80B9
:107840001F5A1801220014400000000010B540F239
:107850002551304800F013F968B300202E49087014
:107860002E480088C82827DA2A48001D00882C499D
:107870002C4A128888542C4800783A280BDA08469B
:1078800028490988415C284802780078401C264B2A
:1078900018702648815421480088401C1F490880E0
:1078A00020480088401C1F49088008460088C828D6
:1078B00007DB0020088004E040F22551154800F065
:1078C0006DF840F22441134800F0D9F8A8B1012026
:1078D000114908700F480088134908700D48001DB1
:1078E0000088087000200870012111480078FFF717
:1078F000B5FD01210920FFF7B1FD40F227710548D0
:1079000000F0BDF820B140F22771024800F046F8BF
:1079100010BD0000003801407E0000207C000020E7
:107920006719002078000020840000202F1A002012
:107930007400002010B540F22551144800F09FF863
:1079400080B1124800F056F9C4B21148007864289A
:1079500008DA10480E49097844540D480078401C54
:107960000B49087040F22441084800F088F860B1E3
:1079700006480088C4B20548001D0088C4B200242F
:10798000012105480078FFF769FD10BD0044004063
:107990002B000020B01700202A00002001F4007204
:1079A000B2F5007F00D100BFCA430280704721B109
:1079B000828942F40052828104E082894DF6FF738D
:1079C0001A4082817047000010B504462048844266
:1079D00009D101218803FEF743F800214FF48040CC
:1079E000FEF73EF832E01B48844209D101214804E9
:1079F000FEF716F800214FF40030FEF711F825E0ED
:107A00001548844209D101218804FEF709F80021B4
:107A10004FF48020FEF704F818E01048844209D1A2
:107A20000121C804FDF7FCFF00214FF40020FDF701
:107A3000F7FF0BE00A48844208D101210805FDF751
:107A4000EFFF00214FF48010FDF7EAFF10BD0000AA
:107A5000003801400044004000480040004C004015
:107A60000050004002460020B1F5007F00D100BF69
:107A700013880B400BB1012000E00020704770B567
:107A80000246002400230025002040F66A16B14279
:107A900000D100BFC1F3421501F01F03012606FA11
:107AA00003F3012D02D19689334006E0022D02D165
:107AB000168A334001E0968A33400C12012606FAFA
:107AC00004F41688344013B10CB1012000E000200A
:107AD00070BDF0B50346002400260025002040F6C6
:107AE0006A17B94200D100BF1846C1F3421401F031
:107AF0001F06012707FA06F5012C01D10C3004E01E
:107B0000022C01D1103000E014301AB107682F4365
:107B1000076002E00768AF430760F0BD2DE9F0475A
:107B200086B005460E460024A24600BFA1460027A7
:107B3000B08900B100BF2F462C8A4CF6FF7004407C
:107B4000F08804432C82AC894EF6F3100440B088D0
:107B500031890843718908430443AC81AC8A4FF6EC
:107B6000FF400440B0890443AC8201A8FDF788FFC0
:107B70001F48874202D1DDF810A001E0DDF80CA01B
:107B8000A88900F4004040B10AEBCA0000EB0A10DB
:107B900031684900B0FBF1F807E00AEBCA0000EBDE
:107BA0000A1031688900B0FBF1F86420B8FBF0F0EE
:107BB00004012009642101FB1089A88900F4004018
:107BC00040B1322000EBC900B0FBF1F000F007003B
:107BD000044308E0322000EB09106421B0FBF1F00F
:107BE00000F00F0004432C8106B0BDE8F0870000D0
:107BF0000038014001468888C0F308007047C1F38F
:107C0000080282807047000010B50020002100BFEC
:107C100005E000221A4B23F81020421C90B21428D1
:107C2000F7DB0122164B5A800222DA8003225A81A6
:107C30000422DA8105225A820622DA8200201CE020
:107C4000022112E00E4B421C13F812400D4A4B1C4D
:107C500012F81320944206D1094A32F81020521C1F
:107C6000074B23F810208A1C91B2064A4B1C12F8CD
:107C70001320002AE6D1821C90B21428E0DB10BD4C
:107C80004C000020A81A002070B504460D4613468B
:107C90000021002200BF20E04E00134830F81600FB
:107CA000A04218D1012000EB41060F4810F8162021
:107CB000012D01D142F48072012B02D142F40072F5
:107CC00003E0022B01D142F48062012000EB410667
:107CD000054820F81620481C81B24E00024830F8B2
:107CE00016000028D8D170BDA81A0020FDF7B2FDFB
:107CF00010B501460022002000BF1BE000230F4CFE
:107D0000236001F080031BB10123241F236003E0E3
:107D100000230A4C241F23604B06190E0123074C35
:107D200023604306180E064BD3F818310343D8B22C
:107D3000531CDAB2082AE1DB10BD00009481214215
:107D4000008021421FB52020ADF80C0001208DF8E5
:107D50000E0010208DF80F0003A91A48FCF784FFCD
:107D600020211848FDF758F81020ADF80C0003202A
:107D70008DF80E0048208DF80F0003A91148FCF77C
:107D800073FF04210220FCF74FFF10200190002018
:107D90008DF808000C208DF8090001208DF80A00EC
:107DA00001A8FCF76DFE0A208DF8000002208DF876
:107DB00001008DF8020001208DF803006846FDF7F0
:107DC000FDFC1FBD0010014010B520210C48FDF73F
:107DD00023F84FF4FA70FCF7FFFC20210848FDF768
:107DE0001DF8C820FCF7F8FC02E0C820FCF7F4FC02
:107DF0002E20FEF789F800F001000028F5D010BD14
:107E00000010014010B500248021002000F0B2F8DD
:107E10000A20FCF7E1FC06221749092000F040F98E
:107E200000BF0BE002221E21204600F0D3F8022200
:107E30001F21204600F0CEF8601CC4B2082CF1DBF4
:107E40004FF4FA61192000F0ADF808211B2000F072
:107E500091F8C021162000F08DF80321182000F0C1
:107E600089F81F222C21002000F0B4F804222C21D4
:107E7000012000F0AFF810BD8500002010B5FEF71E
:107E80001DFCFFF75FFFFDF707FCFFF79DFFFFF706
:107E9000B9FF0020FFF7BAF810BD00002DE9F04748
:107EA00007460D46904624213846FEF777F80646E9
:107EB000B146C6F30A0610212D48FCF7ADFF304647
:107EC000FEF75AFB102101EB4711C9B241F0040043
:107ED000FEF742FB06EB0800B0F5006F0ADA00245B
:107EE00005E015F8010BFEF737FB601C84B2444532
:107EF000F7DB28E0C6F5006086B2002405E015F83F
:107F0000010BFEF729FB601C84B2B442F7DB1021A1
:107F10001748FCF783FF10211548FCF77DFF002070
:107F2000FEF72AFB102101EB4711C9B241F0040012
:107F3000FEF712FB05E015F8010BFEF70DFB601CC8
:107F400084B24445F7DB10210948FCF767FF09EBD1
:107F500008001FFA80F94A462421384600F058F8F4
:107F600020220121384600F035F8BDE8F0870000F6
:107F70000008014070B505460C4610210848FCF782
:107F80004BFF2846FEF7F8FA0520FEF7E5FA2046F3
:107F9000FEF7E2FA10210248FCF740FF70BD000036
:107FA0000008014070B505460C4610210848FCF752
:107FB00033FF2846FEF7E0FA0620FEF7CDFA20460A
:107FC000FEF7DAFA10210248FCF728FF70BD000026
:107FD0000008014070B504460D46164610210B48B6
:107FE000FCF71AFF2846FEF7C7FA082101EB4411F7
:107FF000C9B241F00500FEF7AFFA3046FEF7ACFA21
:1080000010210248FCF70AFF70BD00000008014083
:1080100070B504460D46164610210B48FCF7FCFED1
:108020002846FEF7A9FA082101EB4411C9B241F034
:108030000600FEF791FA3046FEF79EFA102102483C
:10804000FCF7ECFE70BD00000008014070B505466D
:108050000E46144610211148FCF7DEFE3046FEF7AE
:108060008BFA082101EB4511C9B241F00700FEF778
:1080700073FA14F8010BFEF76FFA14F8010BFEF710
:108080006BFA14F8010BFEF767FA14F8010BFEF710
:1080900063FA10210148FCF7C1FE70BD00080140E1
:1080A0002DE9F04107460C46154610210C48FCF717
:1080B000B3FE3846FEF760FA0420FEF74DFA0026BC
:1080C00005E014F8010BFEF747FA701C86B2AE42C9
:1080D000F7DB10210248FCF7A1FEBDE8F0810000AB
:1080E00000080140490050EAC12018BF04204A0D91
:1080F00018BF40F0010040F2FF72B2EB515F08BFC1
:1081000040F00200012808BF052070472DE9F0412A
:108110004F1E00EBC7010446D1E9000115461E467B
:1081200037F006020DD02A46334608F0FFF87F1ECE
:1081300004EBC703D3E9002307F020FE37F0060263
:10814000F1D1022F25D0042F13D0062F18BFBDE880
:10815000F0812A46334608F0E9F8D4E90A2307F00B
:108160000DFE2A46334608F0E1F8D4E9082307F06B
:1081700005FE2A46334608F0D9F8D4E9062307F06D
:10818000FDFD2A46334608F0D1F8D4E9042307F070
:10819000F5FD2A46334608F0C9F8D4E9022307F072
:1081A000EDFD2A46334608F0C1F8D4E90023BDE8C6
:1081B000F04107F0E3BD00000022134610460149DC
:1081C00007F098BE0000F03F07F0D8BD002213462C
:1081D0001046114607F08EBE40F2013200204FF0EB
:1081E000E04108F038BD0000024A0020110708F005
:1081F00032BD000001FDFFFF30380A2801D2012006
:10820000704700207047014600BF0020704770474C
:1082100070B505460E46AC6806B970BD0CB9AE60C7
:1082200009E000E0246814B120680028FAD1314642
:10823000204607F0ADFB00BFEFE7000070B5064633
:108240000D46144604B970BD206A18B10649206A6B
:1082500009688847284600F003F920622146304625
:10826000FFF7D6FF00BFEEE7EC00002070B5054633
:108270000E4600F07DF8044644B10320E060C4E9F6
:1082800006562846314607F08DFF6061204670BDD6
:1082900010B500F06DF804460CB10620E0602046F1
:1082A00010BD70B5054600F063F804462CB10420FB
:1082B000E060284600F0D4F82061204670BD000040
:1082C00070B504461EE02568A08900F4807020B9CE
:1082D000A06810B1A068FFF7F3FFA08900F48070D8
